{
  "contractName": "testcont",
  "abi": [
    {
      "inputs": [],
      "payable": false,
      "stateMutability": "nonpayable",
      "type": "constructor"
    },
    {
      "constant": true,
      "inputs": [],
      "name": "getamount",
      "outputs": [
        {
          "internalType": "uint256",
          "name": "",
          "type": "uint256"
        }
      ],
      "payable": false,
      "stateMutability": "view",
      "type": "function"
    },
    {
      "constant": true,
      "inputs": [],
      "name": "getvalue",
      "outputs": [
        {
          "internalType": "uint256",
          "name": "",
          "type": "uint256"
        }
      ],
      "payable": false,
      "stateMutability": "view",
      "type": "function"
    },
    {
      "constant": false,
      "inputs": [
        {
          "internalType": "uint256",
          "name": "am",
          "type": "uint256"
        }
      ],
      "name": "send",
      "outputs": [],
      "payable": false,
      "stateMutability": "nonpayable",
      "type": "function"
    }
  ],
  "bytecode": "0x608060405234801561001057600080fd5b50600080819055506103e8600181905550610105806100306000396000f3fe6080604052348015600f57600080fd5b5060043610603c5760003560e01c8063534117e114604157806369bd01c414605d578063a52c101e146079575b600080fd5b604760a4565b6040518082815260200191505060405180910390f35b606360ad565b6040518082815260200191505060405180910390f35b60a260048036036020811015608d57600080fd5b810190808035906020019092919050505060b7565b005b60008054905090565b6000600154905090565b806000540160008190555080600154036001819055505056fea265627a7a723158208b6cbf83a6b0111817f0f7ceafbf10e54ba7d3d56f3994db82960db3631725e064736f6c63430005100032",
  "source": "pragma solidity >=0.4.22 <0.7.0;\r\n\r\n\r\ncontract testcont {\r\n\r\n    uint amount;\r\n    uint value;\r\n    \r\n    constructor () public\r\n    {\r\n        amount = 0;\r\n        value = 1000;\r\n    }\r\n    \r\n    function getamount() public view returns(uint) {\r\n        return amount;\r\n    }\r\n    function getvalue() public view returns(uint)\r\n    {\r\n        return value;\r\n    }\r\n    \r\n    function send(uint am) public {\r\n        amount = amount + am;\r\n        value = value - am;\r\n    }\r\n}",
  "sourcePath": "C:/Users/moham/Desktop/Session 5 task/Contrect task/contracts/testcont.sol",
  "compiler": {
    "name": "solc",
    "version": "0.5.16+commit.9c3226ce.Emscripten.clang"
  },
  "schemaVersion": "3.2.2",
  "updatedAt": "2020-07-23T02:07:35.130Z",
  "networkType": "ethereum",
  "devdoc": {
    "methods": {}
  },
  "userdoc": {
    "methods": {}
  }
}